:020000040000FA
:101000000BEF08F0FF00FF005182FACF01F0FBCF99
:1010100002F055ED12F089EF0FF00006004E0020AF
:1010200003004FD2000E436E800E446E3F0E456E9D
:1010300083EC0DF080AA02D0010E01D0000E000159
:10104000F819D8B41200000E0001D56F000ED46F4D
:10105000010E0001D66F1200000ECBEC13F0D0C0D1
:101060000FF0D1C010F01B0EF66E100EF76E0900D7
:10107000F5CF11F00A00F5CF12F063EC13F00FC0BA
:10108000D0F010C0D1F0000E0001D86F000E0001AA
:10109000D36F000ED26F8982D0C045F0D1C046F028
:1010A000A3EC11F00001D04BD12B80A881B007D068
:1010B000030E0001D66F000ECBEC13F0120080B8C7
:1010C000120081A01200020E0001D66F000ECBECC0
:1010D00013F01200000E436E800E446E3F0E456EFC
:1010E00083EC0DF080B806D00001D805D8A40AD052
:1010F000050E06D00001D8510001D8A403D0040E7B
:101100000001D66F81B01200030E0001D66F1200ED
:10111000F0C043F0F1C044F0F2C045F083EC0DF0B4
:101120000001F607D8A0F7070001D805D8A40ED013
:1011300080B802D0050E0DD00001F7510CE1060E6B
:101140000001F65DD8B007D0060E03D080A8F4D712
:10115000040E0001D66F81A01200020E0001D66FAE
:101160001200010E0001D86F81A004D0020E000110
:10117000D66F1200030E0001D66F12000001D75186
:10118000010DC00EF324D96E000EF420DA6E010EAC
:10119000DF6E000E0001EE6F000E0001EE6F0F0E0D
:1011A0000001EE6501D017D00001EE51010DC00E17
:1011B000F324D96E000EF420DA6EDF50D8A408D0E4
:1011C00081A002D0020E01D0030E0001D66F03D021
:1011D0000001EE2BE4D7100E0001EE19D8A4120086
:1011E000080E0001D66F12003AEC13F0010E1B1628
:1011F000000E1C161CBE0AD01C5003E11B04D8A014
:1012000005D0000E506E010E4F6E02D04F68506830
:101210003AEC13F01BC01DF01CC01EF0030E206E34
:10122000E80E1F6E1DEC12F0640E1D240001F66F17
:10123000000E1E200001F76F000E266E640E256E54
:10124000000E206E640E1F6E3AEC13F01BC01DF0F2
:101250001CC01EF01DEC12F01DC023F01EC024F0B7
:1012600023EC11F0010E23242B6E000E24202C6E93
:1012700084EC13F02BC0F0F02CC0F1F02DC0F2F094
:10128000030E0001D66F1200000E0001D86F2C0E65
:101290000001D96F010EDA6F000EDB6F000EDC6FFC
:1012A000000E0001DE6F640EDD6F82EC0BF0000EAD
:1012B0000001EF6F100E0001EF6501D0ACD0D4C07B
:1012C0002BF0D5C02CF084EC13F02BC0DCF02CC03C
:1012D000DDF02DC0DEF0000E246E000E256E400EF7
:1012E000266EF3C021F0F4C022F0F5C023F010EC1C
:1012F0000DF021C041F022C042F023C043F0F3C002
:1013000032F0F4C033F0F5C034F0FF0E0001EF25E9
:101310002B6E2C6AFF0E2C2284EC13F02BC02FF0C6
:101320002CC030F02DC031F096EC0CF02FC03EF008
:1013300030C03FF031C040F083EC0AF03EC0DFF037
:101340003FC0E0F040C0E1F0C4EC0EF00001D8A0D6
:101350005FD0000E246E000E256E400E266EF3C088
:1013600021F0F4C022F0F5C023F010EC0DF021C004
:1013700041F022C042F023C043F0F3C032F0F4C089
:1013800033F0F5C034F00001EF5115EC14F017C044
:101390002FF018C030F019C031F096EC0CF02FC0CF
:1013A0003EF030C03FF031C040F083EC0AF03EC068
:1013B000EBF03FC0ECF040C0EDF0000E416E800E4F
:1013C000426E3F0E436EEBC03EF0ECC03FF0EDC00E
:1013D00040F083EC0AF03EC0DCF03FC0DDF040C0DE
:1013E000DEF0D4C02BF0D5C02CF084EC13F02BC071
:1013F000DFF02CC0E0F02DC0E1F0C4EC0EF00001F5
:10140000D8A006D00001EF510F0B0001D76F03D019
:101410000001EF2B4FD70001D751010DC00EF3246F
:10142000D96E000EF420DA6EDF50D8A404D0070E77
:101430000001D66F1200090E0001D66F1200000ED7
:10144000CBEC13F02C0E0001D96F010EDA6F000EF9
:10145000DB6F000EDC6F000E0001DE6F640EDD6FCF
:1014600082EC0BF0000E0001D16F000ED06F010E68
:101470000001D66F1200000E0001D16F000ED06F78
:10148000D2C045F0D3C046F065EC11F00001D24B5C
:10149000D32B89921D0EF66E100EF76E0900F550D3
:1014A0000001D2192FE10900F5500001D319D8A489
:1014B0001200010E0001D66F1200000E0001D66F5F
:1014C00012000001D651000AD8B4ACD5010AD8B434
:1014D000C3D5030AD8B4FED5010AD8B419D6070A71
:1014E000D8B43FD6010AD8B4CFD6030AD8B47CD634
:1014F000010AD8B443D60F0AD8B4BDD7010AD8B46C
:101500009ED7DBD7120040C044F0456A466A3F349C
:10151000443601E3458044500001DB6F43C044F092
:10152000456A466A4234443601E34580445000012E
:10153000DA6F0001DB510001D8B40FD00001DA519D
:101540000001DB5DD8B010D00001DB5100080001C4
:10155000DA25446E180E446407D041C03EF042C004
:101560003FF043C040F012000001DA510001D8B44E
:101570000FD00001DB510001DA5DD8B010D00001BE
:10158000DA5100080001DB25446E180E446407D0D0
:101590003EC03EF03FC03FF040C040F01200060E9B
:1015A0000001D96F40AE02D00001D98F43AE02D006
:1015B0000001D98D3F8EFF0E3E16FF0E3F16000E26
:1015C0004016428EFF0E4116FF0E4216000E4316C5
:1015D0000001DA510001DB5DD8B022D0D89041364D
:1015E000423643360001DA070001DB510001DA1907
:1015F000D8B40FD00001D907D9C044F0070E441663
:10160000D8B407D0EBD7D89040323F323E320001F9
:10161000DB2B0001DA510001DB19D8B428D0F3D755
:101620000001DB510001DA5DD8B021D0D8903E3600
:101630003F3640360001DB070001DB510001DA19BB
:10164000D8B40FD00001D907D9C044F0070E441612
:10165000D8B407D0EBD7D8904332423241320001A0
:10166000DA2B0001DA510001DB19D8A4F4D700010C
:10167000D9AF0CD0FF0E3E1AFF0E3F1AFF0E401AD4
:10168000010E3E26000E3F22000E40220001D9AD81
:101690000CD0FF0E411AFF0E421AFF0E431A010E24
:1016A0004126000E4222000E4322000E0001D96F97
:1016B0003E5041263F5042224050432243AE0FD07D
:1016C000FF0E411AFF0E421AFF0E431A010E412669
:1016D000000E4222000E4322010E0001D96F41C0CC
:1016E0000FF042C010F043C011F0DBC012F0D9C0BF
:1016F00013F0E9EC0FF00FC03EF010C03FF011C046
:1017000040F012000001D9510001DA110001DB1193
:101710000001DC11D8A407D0DDC00FF0DEC010F04E
:10172000A0EC13F01200D9C017F0DAC018F0DBC03B
:1017300019F0DCC01AF0E1EC11F017C024F018C069
:1017400025F019C026F0240E216EF40E226E480EEC
:10175000236E10EC0DF021C030F022C031F023C018
:1017600032F01CEC0CF030C0E7F031C0E8F0DDC026
:101770000FF0DEC010F0116A126AE80E136E030E4D
:10178000146E000E156E000E166EBCEC12F00FC03B
:101790001BF010C01CF011C01DF012C01EF0E7C0FD
:1017A00043F0E8C044F0D8904336443643C01FF0BD
:1017B00044C020F0216A226A5EEC0EF01BC0DFF00C
:1017C0001CC0E0F01DC0E1F01EC0E2F0000E000100
:1017D000E36F000EE46F000EE56F000EE66F15D0AC
:1017E0008986E7C03FF0E8C040F003EC14F089962A
:1017F000E7C03FF0E8C040F003EC14F0010E000138
:10180000E327000EE423E523E6230001DF51000176
:10181000E35D0001E0510001E4590001E1510001E4
:10182000E5590001E651800A436E0001E251800A49
:101830004358D8B01200D4D732C034F0356A366A73
:101840003134343601E3358034503E6E3E50D8A4F6
:1018500009D0000E306E000E316E000E326E000E9A
:10186000336E1200170E346E30C035F031C036F0D2
:1018700032C037F03428386E04D0D8903732363240
:101880003532382EFAD73550396E318EFF0E30167C
:10189000FF0E3116000E321630503A6E31503B6E4C
:1018A00032503C6E3D6A8E0E3E5E3EAE16D03E50CD
:1018B000800A8F0FD8B009D0000E306E000E316E46
:1018C000000E326E000E336E1200D8903D323C3264
:1018D0003B323A323E3EF9D715D0170E3E640FD058
:1018E000000E306E000E316E000E326E000E336E42
:1018F0001200D8903A363B363C363D363E063E50D6
:10190000D8A4F7D73950D8B408D03D1E3C1E3B1E92
:101910003A6C000E3B223C223D223AC030F03BC0E4
:1019200031F03CC032F03DC033F0120031C035F030
:10193000366A376A3034353601E336803550386ED2
:101940003850D8A407D0000E2F6E000E306E000E57
:10195000316E120034C035F0366A376A33343536AA
:1019600001E3368035503D6E3D50D8A407D0000EBF
:101970002F6E000E306E000E316E12003D507B0F48
:10198000382631C03DF034503D1A800E3D16308E61
:10199000338EFF0E3216FF0E3316000E3416000E75
:1019A000396E000E3A6E000E3B6E070E3C6E2FA095
:1019B00006D03250392633503A2234503B22D89048
:1019C000313230322F32D8903236333634363C2EE4
:1019D000EED7090E3C6E2FA006D032503926335078
:1019E0003A2234503B22D890313230322F32D890C4
:1019F0003B323A3239323C2EEED739C00FF03AC082
:101A000010F03BC011F038C012F03DC013F0E9EC0B
:101A10000FF00FC02FF010C030F011C031F01200E5
:101A200023C027F0286A296A2234273601E3288058
:101A300027502E6E2E50D8A407D0000E216E000E17
:101A4000226E000E236E120026C027F0286A296A33
:101A50002534273601E3288027502F6E2F50D8A435
:101A600007D0000E216E000E226E000E236E1200B3
:101A7000000E2B6E000E2C6E000E2D6E2F50890F57
:101A80002E5E23C02FF026502F1A800E2F16228E86
:101A9000FF0E2116FF0E2216000E2316258EFF0EB6
:101AA0002416FF0E2516000E2616180E2A6ED89044
:101AB0002B362C362D362450215C255022582650AA
:101AC0002358D8A007D02450215E2550225A2650F2
:101AD000235A2B80D8902136223623362A2EE7D758
:101AE0002BC00FF02CC010F02DC011F02EC012F042
:101AF0002FC013F0E9EC0FF00FC021F010C022F05E
:101B000011C023F0120050BE07D0505003E14F0423
:101B1000D8A002D08B9E01D08B8E8B8C43C024F03A
:101B200044C025F045C026F0000E216E7A0E226ECC
:101B3000430E236E10EC0DF021C030F022C031F0C6
:101B400023C032F01CEC0CF030C03FF031C040F04C
:101B500003EC14F08B9C43C024F044C025F045C036
:101B600026F0000E216E7A0E226E430E236E10ECCC
:101B70000DF021C030F022C031F023C032F01CEC57
:101B80000CF030C03FF031C040F003EC14F04F5087
:101B90000001D42750500ED01F0EF66E100EF76EB7
:101BA0000900F5CF46F00900F5CF47F04650000197
:101BB000D42747500001D5230001D5BFEDD7D4C0AD
:101BC0000FF0D5C010F01F0EF66E100EF76E090064
:101BD000F5CF11F00A00F5CF12F063EC13F00FC04F
:101BE000D4F010C0D5F012003200140032001400FE
:101BF0003200140028000500140005003C000A0013
:101C000028000500140005003C00500032001400BC
:101C100032001400320014002800050014000500F2
:101C20003C000A0028000500140005003C0050009C
:101C30000400040004000400040004000400040084
:101C40000400040004000400040004000400040074
:101C50000400040004000400040004000400040064
:101C60001000020008000800020004000400040044
:101C7000040004000400A500C400F5004A01F500BA
:101C8000C400A500C400F5004A01F500C400A50089
:101C9000C400F5004A01F500C400A500C400F50029
:101CA0004A01F500EE014A01EE014A01A500EE01EC
:101CB0000601EE01B801EE01B8014A01000E246EE2
:101CC00022AE0AD0221E211E201E1F6C000E2022D2
:101CD00021222222010E246E1EAE0AD01E1E1D1EBF
:101CE0001C1E1B6C000E1C221D221E22010E241A1B
:101CF000000E256E000E266E000E276E000E286E5A
:101D00001F50201021102210D8B42AD0010E236EAB
:101D100006D0D8901F36203621362236232A22AE0E
:101D2000F8D7D89025362636273628361F501B5C24
:101D300020501C5821501D5822501E58D8A009D0A0
:101D40001F501B5E20501C5A21501D5A22501E5AF3
:101D50002580D8902232213220321F32232EE1D723
:101D60002450D8B408D0281E271E261E256C000E2D
:101D700026222722282225C01BF026C01CF027C0BF
:101D80001DF028C01EF012000001DEAF1DD0DCC027
:101D9000E2F0DDC0E3F0DEC0E4F00001E21FE31F8B
:101DA000E41FE22B000EE323E423000E0001E225F2
:101DB0000001DC6F000E0001E3210001DD6F800EE9
:101DC0000001E4210001DE6F0001E1AF1DD0DFC0A2
:101DD000E2F0E0C0E3F0E1C0E4F00001E21FE31F45
:101DE000E41FE22B000EE323E423000E0001E225B2
:101DF0000001DF6F000E0001E3210001E06F800EA3
:101E00000001E4210001E16F000E0001DC1B000E67
:101E10000001DD1B800E0001DE1B000E0001DF1B38
:101E2000000E0001E01B800E0001E11B0001DF51EC
:101E30000001DC5D0001E0510001DD590001E151CC
:101E40000001DE59D8B002D0D8901200D88012001C
:101E5000949C949E93809392939493969398939A40
:101E6000939C939E9290929292969288928A8B9C47
:101E70008B9E8A928A948A968A988A9A8A9C8A9E4B
:101E8000899089828996000E0001D66F000E4E6EF1
:101E9000000E0001D16F000ED06F000E0001D36F55
:101EA000000ED26F000E0001F06F800E0001F16F86
:101EB0003F0E0001F26F010E0001F76FF40EF66F96
:101EC000000E506E010E4F6E1F0EF66E100EF76E66
:101ED0000900F5CF1AF00900F5CF1BF0040E1C6EB7
:101EE000D8901B321A321C2EFBD71AC017F01BC019
:101EF00018F0F1EC13F017C0F3F018C0F4F019C0AB
:101F0000F5F02EEC14F0000E80BA010E0001F86F0F
:101F1000120000EEC0F0190EEE6AE806FDE14E6A0E
:101F20004D6A4C6A1C0EF66E210EF76E000EF86EAE
:101F300003EE00F010EE9CF00900F5CFEEFFE55047
:101F4000E150FAE1800EF66E200EF76E000EF86E8C
:101F500002EE00F010EE9CF00900F5CFEEFFE55028
:101F6000E150FAE1E80EF66E1B0EF76E000EF86E09
:101F700001EE00F010EED4F00900F5CFEEFFE550D1
:101F8000E150FAE1180EF66E250EF76E000EF86EAF
:101F900000EE60F010EE60F00900F5CFEEFFE550C6
:101FA000E150FAE1680EF66E280EF76E000EF86E3C
:101FB00000EE48F010EE04F00900F5CFEEFFE5501A
:101FC000E150FAE151905192000EF86E000127EFB6
:101FD00014F01250D8B405D00F5010101110D8A41E
:101FE0000CD0000E0F6E000E106E000E116E12005F
:101FF000122AD890113210320F32000E0F14146EC4
:10200000000E1014156EFE0E1114166E14501510DD
:102010001610D8B40CD0ECD7122A010E0F26000EE1
:102020001022000E1122D890113210320F32000E01
:102030000F14146E000E1014156EFF0E1114166E90
:10204000145015101610D8B406D0E6D71206D89042
:102050000F361036113610BE03D0020E1260F6D7BE
:1020600012A0109ED8901232125011121350D8A400
:10207000118E0FC00FF010C010F011C011F012003F
:102080004D0A4D0A00004D0A00002D084D0A0000BF
:10209000400C0000000000002006000000000000CE
:1020A0002D080000000020060000000027050000A9
:1020B0000000E0060000B80700004907E006000045
:1020C00020064D0A400CC00D0000EA0A400C00003A
:1020D0004D0A00002D082D09B807000000002D084A
:1020E000000000002006000000002705000000009E
:1020F000E0060000B80700004907E00600002006DF
:102100004D0A400CC00D0000EA0A400C00004D0AC8
:1021100000002D082D09B807000000000C000C007D
:102120000C000C000C000C000C000C000C000C004F
:102130000C000C000C000C000C000C000C000C003F
:102140000C000C000C000C000C000C000C000C002F
:102150000C000C000C000C000C000C000900090025
:1021600009000C000C000C000C000C000C000C0012
:102170000C000C000C000C000C000C000C000C00FF
:102180000C000C000C000C000C000C000C000C00EF
:102190000C000C000C000C000C00090009000900E8
:1021A0000C000C000C000C000C000C000C000C00CF
:1021B0000C000C000C000C00466E4650010DC00EC9
:1021C000F324D96E000EF420DA6EDE04D8B48A8AC5
:1021D0004650436E446A010E4326000E4422C00E50
:1021E0004324D96E000E4420DA6EDE04D8B48A8C03
:1021F0004650436E446A020E4326000E4422C00E2F
:102200004324D96E000E4420DA6EDE04D8B48A8EE0
:102210004650436E446A030E4326000E4422C00E0D
:102220004324D96E000E4420DA6EDE04D8B48980CF
:10223000000E406E640E3F6E03EC14F08A9A8A9C86
:102240008A9E89901200000E286E26AE06D0256C5C
:10225000261ED8B0262A010E286E24AE06D0236C86
:10226000241ED8B0242A010E281A000E2A6E000E51
:10227000296E25502610D8B41CD0010E276E04D02C
:10228000D89025362636272A26AEFAD7D890293672
:102290002A362550235C26502458D8A005D0255036
:1022A000235E2650245A2980D89026322532272EA4
:1022B000EDD72850D8B404D0296C2A1ED8B02A2AC9
:1022C00029C023F02AC024F01200D8904534D96EDA
:1022D0004634DA6E000ED926020EDA22DECFE9F09D
:1022E000DDCFEAF0E9C0D9F0EAC0DAF00001DB6B3B
:1022F000DC6B030E106EE80E0F6ED8904534D96E6D
:102300004634DA6E000ED926030EDA22DECF11F043
:10231000DDCF12F011EC13F00FC0DDF010C0DEF0D5
:1023200082EC0BF0000E0001D96F000EDA6F000E88
:10233000DB6F000EDC6F000E0001DE6F140EDD6F30
:1023400082EC0BF01200D8904534D96E4634DA6E28
:10235000B40ED926000EDA22DECFE9F0DDCFEAF0A6
:10236000E9C0D9F0EAC0DAF00001DB6BDC6BD89091
:102370004534D96E4634DA6EA80ED926000EDA221C
:10238000DECF0FF0DDCF10F0000E126E460E116E94
:10239000DEEC13F00FC0DDF010C0DEF082EC0BF0CD
:1023A000000E0001D96F000EDA6F000EDB6F000E19
:1023B000DC6F000E0001DE6F140EDD6F82EC0BF09F
:1023C0001200000E206E8E0E1F6E1AAE11D01A1E55
:1023D000191E181E176C000E182219221A22010E3F
:1023E000206E06D0D8901A321932183217321F2AAE
:1023F000000E17141B6E000E18141C6E000E19141C
:102400001D6EFF0E1A141E6E1B501C101D101E1088
:10241000D8A4E8D717C00FF018C010F019C011F0F9
:102420001FC012F020C013F0E9EC0FF00FC017F03E
:1024300010C018F011C019F01200000E226E1EAE6E
:1024400006D01D6C1E1ED8B01E2A010E226E20AEB4
:1024500004D01F6C201ED8B0202A1F502010D8B4E2
:1024600018D0010E216E04D0D8901F362036212AB4
:1024700020AEFAD71F501D5C20501E58D8A004D0A3
:102480001F501D5E20501E5AD89020321F32212E20
:10249000F1D72250D8B404D01D6C1E1ED8B01E2A0D
:1024A0001DC01DF01EC01EF012000600E9CF03F093
:1024B000EACF04F0E1CF05F0E2CF06F0D9CF07F084
:1024C000DACF08F0F3CF09F0F4CF0AF0F6CF0BF033
:1024D000F7CF0CF0F8CF0DF0F5CF0EF00EC0F5FFF2
:1024E0000DC0F8FF0CC0F7FF0BC0F6FF0AC0F4FFE9
:1024F00009C0F3FF08C0DAFF07C0D9FF06C0E2FF3A
:1025000005C0E1FF04C0EAFF03C0E9FF02C0FBFF12
:1025100001C0FAFF51921100B8010000B80100009B
:10252000B80100005D0100000B020000B8010000CE
:102530005D0100000B020000B801000093020000E2
:102540009302000093020000BA0200000B02000098
:10255000B80100005D0100000B020000B80100009E
:10256000020002000200020002000200A500C400F6
:10257000F5004A01F500C400000E176E000E186E3B
:10258000000E196E000E1A6E0FA008D013501726F9
:10259000145018221550192216501A22D8901336AA
:1025A000143615361636D8901232113210320F32D8
:1025B0000F50101011101210D8A4E6D717C00FF04A
:1025C00018C010F019C011F01AC012F01200116EEC
:1025D000D58CD59AD596D550F80B0509D56E000E39
:1025E000D76E450ED66E11C00FF0010E0F160F3AC2
:1025F0000F46F2500F18DF0B0F18F26EF2AE03D039
:102600000F6A0F2A01D00F6A1150010B0F10106EC4
:1026100010321032F25010187F0B1018F26EF29434
:102620001200000E146E000E136E11501210D8B46A
:102630001CD0010E156E04D0D89011361236152A12
:1026400012AEFAD7D8901336143611500F5C1250D0
:102650001058D8A005D011500F5E1250105A138098
:10266000D89012321132152EEDD713C00FF014C0CE
:1026700010F0120048C00FF049C010F04AC011F02D
:102680004BC012F06D0E136E4E0E146EC60E156E0C
:10269000410E166EBCEC12F00FC048F010C049F0AD
:1026A00011C04AF012C04BF0390E4826300E4922B4
:1026B000000E4A22000E4B22FF0E4A141B6E7F0EA4
:1026C0004B141C6E120011501210D8B418D0010E09
:1026D000136E04D0D89011361236132A12AEFAD7E0
:1026E00011500F5C12501058D8A004D011500F5E3A
:1026F0001250105AD89012321132132EF1D70FC047
:102700000FF010C010F01200000E2E6E2CAE06D08E
:102710002B6C2C1ED8B02C2A010E2E6E2BC00FF065
:102720002CC010F0116A8E0E126E2EC013F0E9EC60
:102730000FF00FC02BF010C02CF011C02DF01200C4
:10274000000E136E000E126E0AD0100E116E410EA6
:10275000E82EFED7112EFCD700F0124A132A0F5094
:10276000125C10501358D8B01200EFD78A92000EA6
:10277000DCEC10F08A828A94040EDCEC10F08A847F
:102780008A96080EDCEC10F08A868A980C0EDCEC37
:1027900010F08A8812000F6E000E106E0F0E10647B
:1027A00001D012001050010DC00EF324D96E000E9E
:1027B000F420DA6E0FC0DFFF102AF0D70F5011029D
:1027C000F3CF13F0F4CF14F00F501202F35014268D
:1027D00010501102F350142613C00FF014C010F063
:1027E000120017C00FF018C010F0116A8E0E126E92
:1027F000000E136EE9EC0FF00FC017F010C018F0C8
:1028000011C019F01200000E426E000E416E06D08B
:10281000030EE82EFED700D0414A422A3F50415CC9
:1028200040504258D8B01200F3D71A6E1A500F6EAB
:10283000106A116A8E0E126E000E136EE9EC0FF024
:102840000FC017F010C018F011C019F0120028ECDA
:102850000FF011EC08F0B6EC13F0FBD70F0EC16EC1
:10286000000EE7EC12F0120001000000FF00FF0074
:020000040020DA
:08000000FFFFFFFFFFFFFFFF00
:020000040030CA
:0E00000000051F1FFF8385FF0FC00FE00F409C
:00000001FF
