:020000040000FA
:101000000BEF08F0FF00FF005182FACF01F0FBCF99
:1010100002F0BDED11F0EBEF0EF00006004E0020E7
:1010200003003ED2000E436E800E446E3F0E456EAE
:1010300049EC0DF080AA02D0010E01D0000E000193
:10104000F819D8B41200000E0001D56F000ED46F4D
:10105000010E0001D66F1200000E33EC13F0D0C069
:101060000FF0D1C010F01B0EF66E100EF76E0900D7
:10107000F5CF11F00A00F5CF12F0CBEC12F00FC053
:10108000D0F010C0D1F0000E0001D86F000E0001AA
:10109000D36F000ED26F8982D0C045F0D1C046F028
:1010A0000BEC11F00001D04BD12B80A881B007D000
:1010B000030E0001D66F000E33EC13F0120080B85F
:1010C000120081A01200020E0001D66F000E33EC58
:1010D00013F01200000E436E800E446E3F0E456EFC
:1010E00049EC0DF080B808D00001D805D8A4120052
:1010F000050E0001D66F12000001D8510001D8A4DE
:101100001200040E0001D66F1200F0C043F0F1C0CF
:1011100044F0F2C045F049EC0DF00001F607D8A00C
:10112000F7070001D805D8A412D080B804D0050E66
:101130000001D66F12000001F75104E1060E000114
:10114000F65DD8B01200060E0001D66F120080B80E
:101150000CD00001F75104E1060E0001F65DD8B095
:101160001200060E0001D66F1200040E0001D66FA9
:101170001200010E0001D86F81A004D0020E000100
:10118000D66F1200030E0001D66F12000001D75176
:10119000010DC00EF324D96E000EF420DA6E010E9C
:1011A000DF6E000E0001EE6F000E0001EE6F0F0EFD
:1011B0000001EE6501D017D00001EE51010DC00E07
:1011C000F324D96E000EF420DA6EDF50D8A408D0D4
:1011D00081A002D0020E01D0030E0001D66F03D011
:1011E0000001EE2BE4D7100E0001EE19D8A4120076
:1011F000080E0001D66F1200A2EC12F0D8901B3638
:101200001C361CBE0AD01C5003E11B04D8A005D01C
:10121000000E506E010E4F6E02D04F685068A2EC67
:1012200012F01BC01DF01CC01EF0070E206ED00E69
:101230001F6E85EC11F0640E1D240001F66F000E88
:101240001E200001F76FA2EC12F0010E1B141D6EA0
:101250001E6AECEC12F01DC0F0F01EC0F1F01FC0D1
:10126000F2F0030E0001D66F1200000E0001D86FDD
:101270002C0E0001D96F010EDA6F000EDB6F000E2D
:10128000DC6F000E0001DE6F640EDD6F48EC0BF0CA
:10129000000E0001EF6F100E0001EF6501D0AAD023
:1012A000D4C01DF0D5C01EF0ECEC12F01DC03CF017
:1012B0001EC03DF01FC03EF0000E246E000E256ED5
:1012C000400E266EF3C021F0F4C022F0F5C023F0EA
:1012D000D6EC0CF021C033F022C034F023C035F03E
:1012E000F3C024F0F4C025F0F5C026F0FF0E000195
:1012F000EF251D6E1E6AFF0E1E22ECEC12F01DC0C3
:1013000021F01EC022F01FC023F05CEC0CF021C0C5
:1013100030F022C031F023C032F072EC0AF030C05D
:101320003FF031C040F032C041F03EEC10F0D8A0A8
:101330005ED0000E246E000E256E400E266EF3C0A9
:1013400021F0F4C022F0F5C023F0D6EC0CF021C05F
:1013500033F022C034F023C035F0F3C024F0F4C0E1
:1013600025F0F5C026F00001EF517DEC13F017C019
:1013700021F018C022F019C023F05CEC0CF021C061
:1013800030F022C031F023C032F072EC0AF030C0ED
:10139000EBF031C0ECF032C0EDF0000E336E800E99
:1013A000346E3F0E356EEBC030F0ECC031F0EDC066
:1013B00032F072EC0AF030C03CF031C03DF032C087
:1013C0003EF0D4C01DF0D5C01EF0ECEC12F01DC0F4
:1013D0003FF01EC040F01FC041F03EEC10F0D8A01E
:1013E00006D00001EF510F0B0001D76F03D00001B1
:1013F000EF2B51D70001D751010DC00EF324D96E48
:10140000000EF420DA6EDF50D8A404D0070E0001DD
:10141000D66F1200090E0001D66F1200000E33ECD9
:1014200013F02C0E0001D96F010EDA6F000EDB6F86
:10143000000EDC6F000E0001DE6F640EDD6F48EC05
:101440000BF0000E0001D16F000ED06F010E0001F5
:10145000D66F1200000E0001D16F000ED06FD2C007
:1014600045F0D3C046F0CDEC10F00001D24BD32BA9
:1014700089921D0EF66E100EF76E0900F5500001F0
:10148000D2192FE10900F5500001D319D8A4120098
:10149000010E0001D66F1200000E0001D66F12007F
:1014A0000001D651000AD8B4BDD5010AD8B4D4D5AC
:1014B000030AD8B40FD6010AD8B427D6070AD8B47D
:1014C00058D6010AD8B4D1D6030AD8B495D6010AA1
:1014D000D8B45CD60F0AD8B4BDD7010AD8B49ED709
:1014E000DBD7120032C036F0376A386A313436360C
:1014F00001E3378036503B6E35C036F0376A386AC4
:101500003434363601E3378036503A6E3B50D8B427
:101510000BD03A503B5CD8B00ED03B5000083A2478
:10152000366E180E366407D033C030F034C031F058
:1015300035C032F012003A50D8B40BD03B503A5C70
:10154000D8B00ED03A5000083B24366E180E3664E0
:1015500007D030C030F031C031F032C032F012006C
:10156000060E396E32BE398E35BE398C318EFF0E85
:101570003016FF0E3116000E3216348EFF0E331663
:10158000FF0E3416000E35163A503B5CD8B01BD017
:10159000D8903336343635363A063B503A18D8B4FC
:1015A0000DD0390639C036F0070E3616D8B406D03D
:1015B000EFD7D8903232313230323B2A3A503B1892
:1015C000D8B41FD0F6D73B503A5CD8B01AD0D890D8
:1015D0003036313632363B063B503A18D8B40DD04F
:1015E000390639C036F0070E3616D8B406D0EFD714
:1015F000D8903532343233323A2A3A503B18D8A494
:10160000F7D739AE0CD0FF0E301AFF0E311AFF0E8D
:10161000321A010E3026000E3122000E322239AC71
:101620000CD0FF0E331AFF0E341AFF0E351A010EBE
:101630003326000E3422000E3522000E396E305053
:101640003326315034223250352235AE0ED0FF0EC3
:10165000331AFF0E341AFF0E351A010E3326000E10
:101660003422000E3522010E396E33C00FF034C023
:1016700010F035C011F03BC012F039C013F04BEC44
:101680000FF00FC030F010C031F011C032F0120076
:101690000001D9510001DA110001DB110001DC1158
:1016A000D8A407D0DDC00FF0DEC010F008EC13F0B6
:1016B0001200D9C017F0DAC018F0DBC019F0DCC096
:1016C0001AF049EC11F017C024F018C025F019C029
:1016D00026F0240E216EF40E226E480E236ED6ECF8
:1016E0000CF021C030F022C031F023C032F0E2EC27
:1016F0000BF030C0E7F031C0E8F0DDC00FF0DEC025
:1017000010F0116A126AE80E136E030E146E000ECA
:10171000156E000E166E24EC12F00FC01BF010C0F8
:101720001CF011C01DF012C01EF0E7C043F0E8C06D
:1017300044F0D8904336443643C01FF044C020F0F4
:10174000216A226A24EC0EF01BC0DFF01CC0E0F01E
:101750001DC0E1F01EC0E2F0000E0001E36F000EBC
:10176000E46F000EE56F000EE66F15D08986E7C0C6
:101770003FF0E8C040F06BEC13F08996E7C03FF013
:10178000E8C040F06BEC13F0010E0001E327000EFF
:10179000E423E523E6230001DF510001E35D0001BE
:1017A000E0510001E4590001E1510001E559000157
:1017B000E651800A436E0001E251800A4358D8B0D6
:1017C0001200D4D732C034F0356A366A3134343638
:1017D00001E3358034503E6E3E50D8A409D0000E4F
:1017E000306E000E316E000E326E000E336E12003F
:1017F000170E346E30C035F031C036F032C037F0DD
:101800003428386E04D0D890373236323532382EFC
:10181000FAD73550396E318EFF0E3016FF0E311665
:10182000000E321630503A6E31503B6E32503C6EE4
:101830003D6A8E0E3E5E3EAE16D03E50800A8F0F41
:10184000D8B009D0000E306E000E316E000E326E30
:10185000000E336E1200D8903D323C323B323A32A9
:101860003E3EF9D715D0170E3E640FD0000E306EF5
:10187000000E316E000E326E000E336E1200D890E4
:101880003A363B363C363D363E063E50D8A4F7D776
:101890003950D8B408D03D1E3C1E3B1E3A6C000E99
:1018A0003B223C223D223AC030F03BC031F03CC0EC
:1018B00032F03DC033F0120023C027F0286A296AB5
:1018C0002234273601E3288027502A6E2A50D8A4D4
:1018D00007D0000E216E000E226E000E236E120045
:1018E00026C027F0286A296A2534273601E3288094
:1018F00027502F6E2F50D8A407D0000E216E000E57
:10190000226E000E236E12002F507B0F2A2623C05A
:101910002FF026502F1A800E2F16228E258EFF0EA6
:101920002416FF0E2516000E2616000E2B6E000E36
:101930002C6E000E2D6E070E2E6E21A006D02450A8
:101940002B2625502C2226502D22D89023322232AD
:101950002132D8902436253626362E2EEED7090E83
:101960002E6E21A006D024502B2625502C22265046
:101970002D22D890233222322132D8902D322C328F
:101980002B322E2EEED72BC00FF02CC010F02DC016
:1019900011F02AC012F02FC013F04BEC0FF00FC063
:1019A00021F010C022F011C023F0120023C027F054
:1019B000286A296A2234273601E3288027502E6EB0
:1019C0002E50D8A407D0000E216E000E226E000EFD
:1019D000236E120026C027F0286A296A253427368C
:1019E00001E3288027502F6E2F50D8A407D0000E77
:1019F000216E000E226E000E236E1200000E2B6E62
:101A0000000E2C6E000E2D6E2F50890F2E5E23C0FF
:101A10002FF026502F1A800E2F16228EFF0E211621
:101A2000FF0E2216000E2316258EFF0E2416FF0E23
:101A30002516000E2616180E2A6ED8902B362C3638
:101A40002D362450215C2550225826502358D8A0EA
:101A500007D02450215E2550225A2650235A2B802D
:101A6000D8902136223623362A2EE7D72BC00FF006
:101A70002CC010F02DC011F02EC012F02FC013F0AA
:101A80004BEC0FF00FC021F010C022F011C023F07A
:101A9000120050BE07D0505003E14F04D8A002D02E
:101AA0008B9E01D08B8E8B8C43C024F044C025F0DC
:101AB00045C026F0000E216E7A0E226E430E236E74
:101AC000D6EC0CF021C030F022C031F023C032F04F
:101AD000E2EC0BF030C03FF031C040F06BEC13F0A3
:101AE0008B9C43C024F044C025F045C026F0000E76
:101AF000216E7A0E226E430E236ED6EC0CF021C0BE
:101B000030F022C031F023C032F0E2EC0BF030C0F4
:101B10003FF031C040F06BEC13F04F500001D42780
:101B200050500ED01F0EF66E100EF76E0900F5CF56
:101B300046F00900F5CF47F046500001D427475042
:101B40000001D5230001D5BFEDD7D4C00FF0D5C01B
:101B500010F01F0EF66E100EF76E0900F5CF11F0A3
:101B60000A00F5CF12F0CBEC12F00FC0D4F010C089
:101B7000D5F01200320014003200140032001400BC
:101B800028000500140005003C000A00280005009C
:101B9000140005003C005000320014003200140014
:101BA0003200140028000500140005003C000A0063
:101BB00028000500140005003C005000040004004B
:101BC00004000400040004000400040004000400F5
:101BD00004000400040004000400040004000400E5
:101BE00004000400040004000400040010000200CB
:101BF00008000800020004000400040004000400BF
:101C00000400A500C400F5004A01F500C400A500C9
:101C1000C400F5004A01F500C400A500C400F500A9
:101C20004A01F500C400A500C400F5004A01F50012
:101C3000EE014A01EE014A01A500EE010601EE01A6
:101C4000B801EE01B8014A01000E246E22AE0AD09E
:101C5000221E211E201E1F6C000E20222122222265
:101C6000010E246E1EAE0AD01E1E1D1E1C1E1B6CF5
:101C7000000E1C221D221E22010E241A000E256EAB
:101C8000000E266E000E276E000E286E1F502010CC
:101C900021102210D8B42AD0010E236E06D0D8907D
:101CA0001F36203621362236232A22AEF8D7D89086
:101CB00025362636273628361F501B5C20501C58E8
:101CC00021501D5822501E58D8A009D01F501B5E0D
:101CD00020501C5A21501D5A22501E5A2580D8903F
:101CE0002232213220321F32232EE1D72450D8B4A1
:101CF00008D0281E271E261E256C000E262227220D
:101D0000282225C01BF026C01CF027C01DF028C0CB
:101D10001EF01200949C949E9380939293949396B9
:101D20009398939A939C939E929092929296928873
:101D3000928A8B9C8B9E8A928A948A968A988A9A97
:101D40008A9C8A9E899089828996000E0001D66FAE
:101D5000000E4E6E000E0001D16F000ED06F000E0F
:101D60000001D36F000ED26F000E0001F06F800EE5
:101D70000001F16F3F0E0001F26F010E0001F76FDD
:101D8000F40EF66F000E506E010E4F6E1F0EF66EC3
:101D9000100EF76E0900F5CF1AF00900F5CF1BF011
:101DA000040E1C6ED8901B321A321C2EFBD71AC0A0
:101DB00017F01BC018F059EC13F017C0F3F018C05F
:101DC000F4F019C0F5F096EC13F0000E80BA010E95
:101DD0000001F86F120000EEC0F0190EEE6AE8067E
:101DE000FDE14E6A4D6A4C6AE00EF66E1F0EF76E0C
:101DF000000EF86E03EE00F010EE9CF00900F5CF37
:101E0000EEFFE550E150FAE1440EF66E1F0EF76E5C
:101E1000000EF86E02EE00F010EE9CF00900F5CF17
:101E2000EEFFE550E150FAE1740EF66E1B0EF76E10
:101E3000000EF86E01EE00F010EED4F00900F5CFC0
:101E4000EEFFE550E150FAE1E80EF66E230EF76E74
:101E5000000EF86E00EE60F010EE60F00900F5CFB5
:101E6000EEFFE550E150FAE1380EF66E270EF76E00
:101E7000000EF86E00EE48F010EE04F00900F5CF09
:101E8000EEFFE550E150FAE151905192000EF86EEC
:101E900000018FEF13F01250D8B405D00F5010107E
:101EA0001110D8A40CD0000E0F6E000E106E000E94
:101EB000116E1200122AD890113210320F32000E19
:101EC0000F14146E000E1014156EFE0E1114166E03
:101ED000145015101610D8B40CD0ECD7122A010EDD
:101EE0000F26000E1022000E1122D890113210324F
:101EF0000F32000E0F14146E000E1014156EFF0E2C
:101F00001114166E145015101610D8B406D0E6D75A
:101F10001206D8900F361036113610BE03D0020EBE
:101F20001260F6D712A0109ED890123212501112E1
:101F30001350D8A4118E0FC00FF010C010F011C0B4
:101F400011F012004D0A4D0A00004D0A00002D0844
:101F50004D0A0000400C00000000000020060000B8
:101F6000000000002D080000000020060000000016
:101F7000270500000000E0060000B8070000490740
:101F8000E006000020064D0A400CC00D0000EA0AE1
:101F9000400C00004D0A00002D082D09B807000074
:101FA00000002D08000000002006000000002705AA
:101FB00000000000E0060000B80700004907E00646
:101FC000000020064D0A400CC00D0000EA0A400C3B
:101FD00000004D0A00002D082D09B8070000000080
:101FE0000C000C000C000C000C000C000C000C0091
:101FF0000C000C000C000C000C000C000C000C0081
:102000000C000C000C000C000C000C000C000C0070
:102010000C000C000C000C000C000C000C000C0060
:102020000900090009000C000C000C000C000C0059
:102030000C000C000C000C000C000C000C000C0040
:102040000C000C000C000C000C000C000C000C0030
:102050000C000C000C000C000C000C000C00090023
:10206000090009000C000C000C000C000C000C0016
:102070000C000C000C000C000C000C003EAE16D046
:102080003CC042F03DC043F03EC044F0421E431EFF
:10209000441E422A000E43224422000E42243C6E7B
:1020A000000E43203D6E800E44203E6E41AE16D0A1
:1020B0003FC042F040C043F041C044F0421E431EC6
:1020C000441E422A000E43224422000E42243F6E48
:1020D000000E4320406E800E4420416E000E3C1ADC
:1020E000000E3D1A800E3E1A000E3F1A000E401AD6
:1020F000800E411A3F503C5C40503D5841503E5884
:10210000D8B002D0D8901200D8801200466E465047
:10211000010DC00EF324D96E000EF420DA6EDE0439
:10212000D8B48A8A4650436E446A010E4326000E94
:102130004422C00E4324D96E000E4420DA6EDE0421
:10214000D8B48A8C4650436E446A020E4326000E71
:102150004422C00E4324D96E000E4420DA6EDE0401
:10216000D8B48A8E4650436E446A030E4326000E4E
:102170004422C00E4324D96E000E4420DA6EDE04E1
:10218000D8B48980000E406E640E3F6E6BEC13F085
:102190008A9A8A9C8A9E89901200D8904534D96E7A
:1021A0004634DA6E000ED926020EDA22DECFE9F0CE
:1021B000DDCFEAF0E9C0D9F0EAC0DAF00001DB6B6C
:1021C000DC6B030E106EE80E0F6ED8904534D96E9E
:1021D0004634DA6E000ED926030EDA22DECF11F075
:1021E000DDCF12F079EC12F00FC0DDF010C0DEF0A0
:1021F00048EC0BF0000E0001D96F000EDA6F000EF4
:10220000DB6F000EDC6F000E0001DE6F140EDD6F61
:1022100048EC0BF01200D8904534D96E4634DA6E93
:10222000B40ED926000EDA22DECFE9F0DDCFEAF0D7
:10223000E9C0D9F0EAC0DAF00001DB6BDC6BD890C2
:102240004534D96E4634DA6EA80ED926000EDA224D
:10225000DECF0FF0DDCF10F0000E126E460E116EC5
:1022600046EC13F00FC0DDF010C0DEF048EC0BF0D0
:10227000000E0001D96F000EDA6F000EDB6F000E4A
:10228000DC6F000E0001DE6F140EDD6F48EC0BF00A
:102290001200000E206E8E0E1F6E1AAE11D01A1E86
:1022A000191E181E176C000E182219221A22010E70
:1022B000206E06D0D8901A321932183217321F2ADF
:1022C000000E17141B6E000E18141C6E000E19144D
:1022D0001D6EFF0E1A141E6E1B501C101D101E10BA
:1022E000D8A4E8D717C00FF018C010F019C011F02B
:1022F0001FC012F020C013F04BEC0FF00FC017F00E
:1023000010C018F011C019F01200000E226E1EAE9F
:1023100006D01D6C1E1ED8B01E2A010E226E20AEE5
:1023200004D01F6C201ED8B0202A1F502010D8B413
:1023300018D0010E216E04D0D8901F362036212AE5
:1023400020AEFAD71F501D5C20501E58D8A004D0D4
:102350001F501D5E20501E5AD89020321F32212E51
:10236000F1D72250D8B404D01D6C1E1ED8B01E2A3E
:102370001DC01DF01EC01EF012000600E9CF03F0C4
:10238000EACF04F0E1CF05F0E2CF06F0D9CF07F0B5
:10239000DACF08F0F3CF09F0F4CF0AF0F6CF0BF064
:1023A000F7CF0CF0F8CF0DF0F5CF0EF00EC0F5FF23
:1023B0000DC0F8FF0CC0F7FF0BC0F6FF0AC0F4FF1A
:1023C00009C0F3FF08C0DAFF07C0D9FF06C0E2FF6B
:1023D00005C0E1FF04C0EAFF03C0E9FF02C0FBFF44
:1023E00001C0FAFF51921100B8010000B8010000CD
:1023F000B80100005D0100000B020000B801000000
:102400005D0100000B020000B80100009302000013
:102410009302000093020000BA0200000B020000C9
:10242000B80100005D0100000B020000B8010000CF
:10243000020002000200020002000200A500C40027
:10244000F5004A01F500C400000E176E000E186E6C
:10245000000E196E000E1A6E0FA008D0135017262A
:10246000145018221550192216501A22D8901336DB
:10247000143615361636D8901232113210320F3209
:102480000F50101011101210D8A4E6D717C00FF07B
:1024900018C010F019C011F01AC012F01200116E1D
:1024A000D58CD59AD596D550F80B0509D56E000E6A
:1024B000D76E450ED66E11C00FF0010E0F160F3AF3
:1024C0000F46F2500F18DF0B0F18F26EF2AE03D06A
:1024D0000F6A0F2A01D00F6A1150010B0F10106EF6
:1024E00010321032F25010187F0B1018F26EF29466
:1024F0001200000E146E000E136E11501210D8B49C
:102500001CD0010E156E04D0D89011361236152A43
:1025100012AEFAD7D8901336143611500F5C125001
:102520001058D8A005D011500F5E1250105A1380C9
:10253000D89012321132152EEDD713C00FF014C0FF
:1025400010F0120048C00FF049C010F04AC011F05E
:102550004BC012F06D0E136E4E0E146EC60E156E3D
:10256000410E166E24EC12F00FC048F010C049F076
:1025700011C04AF012C04BF0390E4826300E4922E5
:10258000000E4A22000E4B22FF0E4A141B6E7F0ED5
:102590004B141C6E120011501210D8B418D0010E3A
:1025A000136E04D0D89011361236132A12AEFAD711
:1025B00011500F5C12501058D8A004D011500F5E6B
:1025C0001250105AD89012321132132EF1D70FC078
:1025D0000FF010C010F01200000E206E1EAE06D0DC
:1025E0001D6C1E1ED8B01E2A010E206E1DC00FF0DD
:1025F0001EC010F0116A8E0E126E20C013F04BEC4C
:102600000FF00FC01DF010C01EF011C01FF012001F
:10261000000E136E000E126E0AD0100E116E410ED7
:10262000E82EFED7112EFCD700F0124A132A0F50C5
:10263000125C10501358D8B01200EFD78A92000ED7
:1026400086EC10F08A828A94040E86EC10F08A845C
:102650008A96080E86EC10F08A868A980C0E86EC14
:1026600010F08A8812000F6E000E106E0F0E1064AC
:1026700001D012001050010DC00EF324D96E000ECF
:10268000F420DA6E0FC0DFFF102AF0D70F501102CE
:10269000F3CF13F0F4CF14F00F501202F3501426BE
:1026A00010501102F350142613C00FF014C010F094
:1026B000120017C00FF018C010F0116A8E0E126EC3
:1026C000000E136E4BEC0FF00FC017F010C018F097
:1026D00011C019F01200000E426E000E416E06D0BD
:1026E000030EE82EFED700D0414A422A3F50415CFB
:1026F00040504258D8B01200F3D71A6E1A500F6EDD
:10270000106A116A8E0E126E000E136E4BEC0FF0F3
:102710000FC017F010C018F011C019F012008AECA9
:102720000EF011EC08F01EEC13F0FBD70F0EC16E8B
:10273000000E4FEC12F0120001000000FF00FF003D
:020000040020DA
:08000000FFFFFFFFFFFFFFFF00
:020000040030CA
:0E00000000051F1FFF8385FF0FC00FE00F409C
:00000001FF
