:020000040000FA
:101000000BEF08F0FF00FF005182FACF01F0FBCF99
:1010100002F02FED12F0E8EF10F00006002F002094
:101020000300C6D2000E0001E06F800E0001E16FE8
:101030003F0E0001E26F61EC0DF080AA02D0010EBC
:1010400001D0000E0001FE19D8B41200000E80BAC3
:10105000010E0001FE6F0001D905D8A409D0000ED1
:101060000001D56F000ED46F010E0001D86F120081
:101070000001D92B12008984000EBDEC13F0000191
:10108000D64BD72BD6C00FF0D7C010F0030E126E80
:10109000E80E116E3DEC13F00FC0D6F010C0D7F083
:1010A000D0C00FF0D1C010F01B0EF66E100EF76E10
:1010B0000900F5CF11F00A00F5CF12F03DEC13F066
:1010C0000FC0D0F010C0D1F0000E0001DB6F000E99
:1010D0000001D36F000ED26F8982D0C0F2F0D1C070
:1010E000F3F079EC11F00001D04BD12B80B8120055
:1010F000D6C00FF0D7C010F00EEC14F081B007D0BE
:10110000030E0001D86F000EBDEC13F01200020EAA
:101110000001D86F000EBDEC13F01200CD0E0001DF
:10112000E06F4C0E0001E16F3F0E0001E26F61ECD9
:101130000DF081B003D0030E0001D86F80B808D045
:101140000001DB05D8A41200050E0001D86F1200C3
:101150000001DB510001D8A41200040E0001D86F79
:101160001200F4C0E0F0F5C0E1F0F6C0E2F061EC8E
:101170000DF00001FA07D8A0FB0781A003D0020EF2
:101180000001D86F0001DB05D8A412D080B804D0CC
:10119000050E0001D86F12000001FB5104E1060E9C
:1011A0000001FA5DD8B01200060E0001D86F1200DF
:1011B00080B80CD00001FB5104E1060E0001FA5D7D
:1011C000D8B01200060E0001D86F1200040E000104
:1011D000D86F1200010E0001DB6F81A004D0020E57
:1011E0000001D86F1200030E0001D86F1200000139
:1011F000DA51010DC00EF324D96E000EF420DA6E20
:10120000010EDF6E000E0101F16F000E0101F16FA2
:101210000F0E0101F16501D017D00101F151010D4F
:10122000C00EF324D96E000EF420DA6EDF50D8A47D
:1012300008D081A002D0020E01D0030E0001D86FA9
:1012400003D00101F12BE4D7100E0101F119D8A44C
:101250001200080E0001D86F120014EC13F0010EFA
:101260001B16000E1C161CBE0BD01C5003E11B04E9
:10127000D8A006D0000E0001FD6F010EFC6F03D058
:101280000001FC69FD6914EC13F01BC01DF01CC0CB
:101290001EF0030E206EE80E1F6EF7EC11F0640EC8
:1012A0001D240001FA6F000E1E200001FB6F000ECE
:1012B000306EC80E316E420E326E000E206E640E1D
:1012C0001F6E14EC13F01BC01DF01CC01EF0F7ECD9
:1012D00011F01DC023F01EC024F0000E266E0A0E71
:1012E000256ED0EC13F023C029F024C02AF05EEC68
:1012F00013F029C02DF02AC02EF02BC02FF04FEC98
:101300000EF02DC03CF02EC03DF02FC03EF0330E4D
:101310003F6E330E406E3F0E416EFAEC0AF03CC059
:10132000F4F03DC0F5F03EC0F6F0030E0001D86FBA
:101330001200000E0001DB6F000E0101F26F100EB3
:101340000101F26501D0ACD0D4C029F0D5C02AF09B
:101350005EEC13F029C0DCF02AC0DDF02BC0DEF01B
:10136000000E306E000E316E400E326EF7C02DF062
:10137000F8C02EF0F9C02FF04FEC0EF02DC03FF06A
:101380002EC040F02FC041F0F7C030F0F8C031F06F
:10139000F9C032F0FF0E0101F225296E2A6AFF0E14
:1013A0002A225EEC13F029C02DF02AC02EF02BC0AB
:1013B0002FF0E7EC0CF02DC03CF02EC03DF02FC01C
:1013C0003EF0FAEC0AF03CC0DFF03DC0E0F03EC079
:1013D000E1F08AEC0FF00001D8A05FD0000E306E73
:1013E000000E316E400E326EF7C02DF0F8C02EF0B8
:1013F000F9C02FF04FEC0EF02DC03FF02EC040F0A2
:101400002FC041F0F7C030F0F8C031F0F9C032F031
:101410000101F251F5EC13F017C02DF018C02EF0B9
:1014200019C02FF0E7EC0CF02DC03CF02EC03DF0C1
:101430002FC03EF0FAEC0AF03CC0EEF13DC0EFF1F7
:101440003EC0F0F1000E3F6E800E406E3F0E416ECA
:10145000EEC13CF0EFC13DF0F0C13EF0FAEC0AF015
:101460003CC0DCF03DC0DDF03EC0DEF0D4C029F071
:10147000D5C02AF05EEC13F029C0DFF02AC0E0F0FE
:101480002BC0E1F08AEC0FF00001D8A006D00101DA
:10149000F2510F0B0001DA6F03D00101F22B4FD78D
:1014A0000001DA51010DC00EF324D96E000EF420B4
:1014B000DA6EDF50D8A404D0070E0001D86F1200F6
:1014C000090E0001D86F1200000EBDEC13F08994D4
:1014D000200E0001E06F030EE16F000EE26F000EC0
:1014E000E36F000E0001E56F640EE46FD0EC0BF0CB
:1014F000F40E0001E06F010EE16F000EE26F000ECE
:10150000E36F000E0001E56F640EE46FD0EC0BF0AA
:101510002C0E0001E06F010EE16F000EE26F000E75
:10152000E36F000E0001E56F640EE46FD0EC0BF08A
:10153000640E0001E06F000EE16F000EE26F000E1E
:10154000E36F010E0001E56F900EE46FD0EC0BF03D
:10155000000E0001D16F000ED06F010E0001D86F98
:101560001200000E0001D16F000ED06FD2C0F2F059
:10157000D3C0F3F037EC11F00001D24BD32B89929A
:1015800089941D0EF66E100EF76E0900F5500001DD
:10159000D2192FE10900F5500001D319D8A4120087
:1015A000010E0001D86F1200000E0001D86F12006A
:1015B0000001D851000AD8B435D5010AD8B45BD59A
:1015C000030AD8B4ABD5010AD8B4CBD5070AD8B42E
:1015D00001D6010AD8B4ADD6030AD8B43ED6010A62
:1015E000D8B405D60F0AD8B4BCD7010AD8B46CD782
:1015F000DBD712003EC042F0436A446A3D344236B3
:1016000001E343804250476E41C042F0436A446A5E
:101610004034423601E343804250466E4750D8B4CE
:101620000BD04650475CD8B00ED047500008462437
:10163000426E180E426407D03FC03CF040C03DF0FF
:1016400041C03EF012004650D8B40BD04750465C23
:10165000D8B00ED0465000084724426E180E42649F
:1016600007D03CC03CF03DC03DF03EC03EF0120013
:10167000060E456E3EBE458E41BE458C3D8EFF0E2C
:101680003C16FF0E3D16000E3E16408EFF0E3F1616
:10169000FF0E4016000E41164650475CD8B01BD0D6
:1016A000D8903F3640364136460647504618D8B4A3
:1016B0000DD0450645C042F0070E4216D8B406D0FC
:1016C000EFD7D8903E323D323C32472A4650471839
:1016D000D8B41FD0F6D74750465CD8B01AD0D890AF
:1016E0003C363D363E36470647504618D8B40DD0F6
:1016F000450645C042F0070E4216D8B406D0EFD7D3
:10170000D890413240323F32462A46504718D8A43A
:10171000F7D745AE0CD0FF0E3C1AFF0E3D1AFF0E58
:101720003E1A010E3C26000E3D22000E3E2245AC24
:101730000CD0FF0E3F1AFF0E401AFF0E411A010E89
:101740003F26000E4022000E4122000E456E3C5006
:101750003F263D5040223E50412241AE0ED0FF0E6A
:101760003F1AFF0E401AFF0E411A010E3F26000ECF
:101770004022000E4122010E456E3FC00FF040C0D6
:1017800010F041C011F047C012F045C013F03FEC1B
:1017900010F00FC03CF010C03DF011C03EF0120040
:1017A0000001E0510001E1110001E2110001E3112B
:1017B000D8A407D0E4C00FF0E5C010F092EC13F00D
:1017C0001200E0C017F0E1C018F0E2C019F0E3C069
:1017D0001AF0BBEC11F017C030F018C031F019C08E
:1017E00032F0240E2D6EF40E2E6E480E2F6E4FEC3E
:1017F0000EF02DC03CF02EC03DF02FC03EF06DEC41
:101800000CF03CC0F0F03DC0F1F0E4C00FF0E5C0DA
:1018100010F0116A126AE80E136E030E146E000EB9
:10182000156E000E166E96EC12F00FC01BF010C075
:101830001CF011C01DF012C01EF0F0C0E6F0F1C0A7
:10184000E7F0D8900001E637E737E6C01FF0E7C0C1
:1018500020F0216A226AC2EC0EF01BC0E8F01CC026
:10186000E9F01DC0EAF01EC0EBF0000E0001EC6FC5
:10187000000EED6F000EEE6F000EEF6F15D0898633
:10188000F0C0DCF0F1C0DDF07AEC13F08996F0C026
:10189000DCF0F1C0DDF07AEC13F0010E0001EC2772
:1018A000000EED23EE23EF230001E8510001EC5D73
:1018B0000001E9510001ED590001EA510001EE5922
:1018C0000001EF51800A0001E66F0001EB51800A30
:1018D0000001E659D8B01200D2D73EC040F0416AAC
:1018E000426A3D34403601E3418040504A6E4A50DE
:1018F000D8A409D0000E3C6E000E3D6E000E3E6E68
:10190000000E3F6E1200170E406E3CC041F03DC00D
:1019100042F03EC043F04028446E04D0D890433299
:1019200042324132442EFAD74150456E3D8EFF0E71
:101930003C16FF0E3D16000E3E163C50466E3D50C6
:10194000476E3E50486E496A8E0E4A5E4AAE16D0C9
:101950004A50800A8F0FD8B009D0000E3C6E000E9E
:101960003D6E000E3E6E000E3F6E1200D890493262
:101970004832473246324A3EF9D715D0170E4A64EC
:101980000FD0000E3C6E000E3D6E000E3E6E000E3F
:101990003F6E1200D89046364736483649364A06DA
:1019A0004A50D8A4F7D74550D8B408D0491E481E8D
:1019B000471E466C000E47224822492246C03CF092
:1019C00047C03DF048C03EF049C03FF012002FC074
:1019D00033F0346A356A2E34333601E334803350C1
:1019E000366E3650D8A407D0000E2D6E000E2E6E27
:1019F000000E2F6E120032C033F0346A356A313473
:101A0000333601E3348033503B6E3B50D8A407D0CB
:101A1000000E2D6E000E2E6E000E2F6E12003B502B
:101A20007B0F36262FC03BF032503B1A800E3B1600
:101A30002E8E318EFF0E3016FF0E3116000E32162E
:101A4000000E376E000E386E000E396E070E3A6EBD
:101A50002DA006D03050372631503822325039224E
:101A6000D8902F322E322D32D89030363136323651
:101A70003A2EEED7090E3A6E2DA006D030503726FA
:101A80003150382232503922D8902F322E322D3216
:101A9000D8903932383237323A2EEED737C00FF07D
:101AA00038C010F039C011F036C012F03BC013F04E
:101AB0003FEC10F00FC02DF010C02EF011C02FF031
:101AC00012000001FDBF09D00001FD5104E1000139
:101AD000FC05D8A002D08B9E01D08B8E8B8CE0C0F1
:101AE00030F0E1C031F0E2C032F0000E2D6E960E03
:101AF0002E6E420E2F6E4FEC0EF02DC03CF02EC01D
:101B00003DF02FC03EF06DEC0CF03CC0DCF03DC071
:101B1000DDF07AEC13F08B9CE0C030F0E1C031F0E6
:101B2000E2C032F0000E2D6E960E2E6E420E2F6E1B
:101B30004FEC0EF02DC03CF02EC03DF02FC03EF01B
:101B40006DEC0CF03CC0DCF03DC0DDF07AEC13F045
:101B50000001FC510001D4270001FD5110D01F0EDF
:101B6000F66E100EF76E0900F5CFE3F00900F5CF21
:101B7000E4F00001E3510001D4270001E451000129
:101B8000D5230001D5BFEBD7D4C00FF0D5C010F0DE
:101B90001F0EF66E100EF76E0900F5CF11F00A0059
:101BA000F5CF12F03DEC13F00FC0D4F010C0D5F01B
:101BB0001200320014003200140032001400280019
:101BC0000500140005003C000A0028000500140070
:101BD00005003C00500032001400320014003200B6
:101BE000140028000500140005003C000A0028002D
:101BF0000500140005003C005000A500C400F500DD
:101C00004A01F500C400A500C400F5004A01F50032
:101C1000C400A500C400F5004A01F500C400A500F9
:101C2000C400F5004A01F500EE014A01EE014A0147
:101C3000A500EE010601EE01B801EE01B8014A016E
:101C40004D0A4D0A00004D0A00002D084D0A000003
:101C5000400C000000000000200600000000000012
:101C60002D080000000020060000000027050000ED
:101C70000000E0060000B80700004907E006000089
:101C800020064D0A400CC00D0000EA0A400C00007E
:101C90004D0A00002D082D09B807000000002FC0D4
:101CA00033F0346A356A2E34333601E334803350EE
:101CB0003A6E3A50D8A407D0000E2D6E000E2E6E4C
:101CC000000E2F6E120032C033F0346A356A3134A0
:101CD000333601E3348033503B6E3B50D8A407D0F9
:101CE000000E2D6E000E2E6E000E2F6E1200000ED6
:101CF000376E000E386E000E396E3B50890F3A5E1B
:101D00002FC03BF032503B1A800E3B162E8EFF0E3A
:101D10002D16FF0E2E16000E2F16318EFF0E3016CA
:101D2000FF0E3116000E3216180E366ED89037366A
:101D30003836393630502D5C31502E5832502F58AD
:101D4000D8A007D030502D5E31502E5A32502F5A25
:101D50003780D8902D362E362F36362EE7D737C01F
:101D60000FF038C010F039C011F03AC012F03BC08B
:101D700013F03FEC10F00FC02DF010C02EF011C08A
:101D80002FF01200000E246E22AE0AD0221E211E59
:101D9000201E1F6C000E202221222222010E246E02
:101DA0001EAE0AD01E1E1D1E1C1E1B6C000E1C2209
:101DB0001D221E22010E241A000E256E000E266E14
:101DC000000E276E000E286E1F50201021102210CA
:101DD000D8B42AD0010E236E06D0D8901F362036F4
:101DE00021362236232A22AEF8D7D8902536263639
:101DF000273628361F501B5C20501C5821501D5878
:101E000022501E58D8A009D01F501B5E20501C5ACB
:101E100021501D5A22501E5A2580D890223221323C
:101E200020321F32232EE1D72450D8B408D0281EE8
:101E3000271E261E256C000E26222722282225C0BA
:101E40001BF026C01CF027C01DF028C01EF0120099
:101E5000949C949E93809392939493969398939A40
:101E6000939C939E92909292929492969288928A48
:101E70008B9C8B9E8A928A948A968A988A9A8A9C4C
:101E80008A9E8990898289948996000E0001D86F74
:101E9000000E0001D16F000ED06F000E0001D36F55
:101EA000000ED26F000E0001F46F800E0001F56F7E
:101EB0003F0E0001F66F010E0001FB6FF40EFA6F8A
:101EC000000E0001FD6F010EFC6F1F0EF66E100E6E
:101ED000F76E0900F5CF1AF00900F5CF1BF0040EDC
:101EE0001C6ED8901B321A321C2EFBD71AC017F06A
:101EF0001BC018F0E3EC13F017C0F7F018C0F8F0AF
:101F000019C0F9F015EC14F0000E80BA010E0001B2
:101F1000FE6F12000001DEAF19D0DCC048F0DDC05A
:101F200049F0DEC04AF0481E491E4A1E482A000EEB
:101F300049224A22000E48240001DC6F000E49208D
:101F40000001DD6F800E4A200001DE6F0001E1AF6D
:101F500019D0DFC048F0E0C049F0E1C04AF0481EA7
:101F6000491E4A1E482A000E49224A22000E4824D1
:101F70000001DF6F000E49200001E06F800E4A2053
:101F80000001E16F000E0001DC1B000E0001DD1BF3
:101F9000800E0001DE1B000E0001DF1B000E0001A1
:101FA000E01B800E0001E11B0001DF510001DC5D40
:101FB0000001E0510001DD590001E1510001DE594D
:101FC000D8B002D0D8901200D88012000001E36F80
:101FD0000001E351010DC00EF324D96E000EF42070
:101FE000DA6EDE04D8B48A8A0001E3510001E06FA2
:101FF000E16B010E0001E027000EE123C00E00019D
:10200000E025D96E000E0001E121DA6EDE04D8B4BD
:102010008A8C0001E3510001E06FE16B020E0001C8
:10202000E027000EE123C00E0001E025D96E000E6E
:102030000001E121DA6EDE04D8B48A8E0001E3519A
:102040000001E06FE16B030E0001E027000EE123C9
:10205000C00E0001E025D96E000E0001E121DA6E0C
:10206000DE04D8B48980000E0001DD6F960EDC6FAF
:102070007AEC13F08A9A8A9C8A9E899012001250F8
:10208000D8B405D00F5010101110D8A40CD0000EE9
:102090000F6E000E106E000E116E1200122AD890F4
:1020A000113210320F32000E0F14146E000E101485
:1020B000156EFE0E1114166E145015101610D8B4AD
:1020C0000CD0ECD7122A010E0F26000E1022000EA3
:1020D0001122D890113210320F32000E0F14146EEC
:1020E000000E1014156EFF0E1114166E14501510FC
:1020F0001610D8B406D0E6D71206D8900F36103690
:10210000113610BE03D0020E1260F6D712A0109E38
:10211000D8901232125011121350D8A4118E0FC041
:102120000FF010C010F011C011F0120004000400F4
:10213000040004000400040004000400040004007F
:10214000040004000400040004000400040004006F
:102150000400040004000400040004001000020055
:102160000800080002000400040004000400040049
:1021700004000C000C000C000C000C000C000C0007
:102180000C000C000C000C000C000C000C000C00EF
:102190000C000C000C000C000C000C000C000C00DF
:1021A0000C000C000C000C000C000C000C000C00CF
:1021B0000C000900090009000C000C000C000C00C8
:1021C0000C000C000C000C000C000C000C000C00AF
:1021D00000EEC0F01C0EEE6AE806FDE1506A4F6AA0
:1021E0002C0EF66E210EF76E000EF86E02EE00F069
:1021F00010EEA4F00900F5CFEEFFE550E150FAE152
:10220000B20EF66E1B0EF76E000EF86E01EE00F0C9
:1022100010EEECF00900F5CFEEFFE550E150FAE1E9
:10222000CC0EF66E240EF76E000EF86E00EE60F027
:1022300010EE60F00900F5CFEEFFE550E150FAE155
:10224000360EF66E280EF76E000EF86E00EE4BF0AE
:1022500010EE04F00900F5CFEEFFE550E150FAE191
:1022600051905192000EF86E000107EF14F0D890D3
:102270000001F235D96E0001F335DA6E8E0ED926E3
:10228000010EDA22DECFECF1DDCFEDF1ECC1E0F0B2
:10229000EDC1E1F00001E26BE36B030E106EE80E9E
:1022A0000F6ED8900001F235D96E0001F335DA6E69
:1022B000460ED926020EDA22DECF11F0DDCF12F063
:1022C000EBEC12F00FC0E4F010C0E5F0D0EC0BF036
:1022D000000E0001E06F000EE16F000EE26F000ED5
:1022E000E36F000E0001E56F140EE46FD0EC0BF00D
:1022F0001200D8900001F235D96E0001F335DA6E84
:10230000B40ED926000EDA22DECFECF1DDCFEDF1EE
:10231000ECC1E0F0EDC1E1F00001E26BE36BD890BD
:102320000001F235D96E0001F335DA6EA80ED92618
:10233000000EDA22DECF23F0DDCF24F0000E266E71
:10234000460E256ED0EC13F023C0E4F024C0E5F077
:10235000D0EC0BF0000E0001E06F000EE16F000EFC
:10236000E26F000EE36F000E0001E56F140EE46FE4
:10237000D0EC0BF01200000E206E8E0E1F6E1AAE07
:1023800011D01A1E191E181E176C000E18221922C1
:102390001A22010E206E06D0D8901A321932183245
:1023A00017321F2A000E17141B6E000E18141C6E15
:1023B000000E19141D6EFF0E1A141E6E1B501C10F9
:1023C0001D101E10D8A4E8D717C00FF018C010F0C9
:1023D00019C011F01FC012F020C013F03FEC10F034
:1023E0000FC017F010C018F011C019F01200000E45
:1023F000226E1EAE06D01D6C1E1ED8B01E2A010E07
:10240000226E20AE04D01F6C201ED8B0202A1F5090
:102410002010D8B418D0010E216E04D0D8901F36E9
:102420002036212A20AEFAD71F501D5C20501E589E
:10243000D8A004D01F501D5E20501E5AD8902032C4
:102440001F32212EF1D72250D8B404D01D6C1E1E8D
:10245000D8B01E2A1DC01DF01EC01EF012000600BE
:10246000E9CF03F0EACF04F0E1CF05F0E2CF06F0C8
:10247000D9CF07F0DACF08F0F3CF09F0F4CF0AF0A4
:10248000F6CF0BF0F7CF0CF0F8CF0DF0F5CF0EF044
:102490000EC0F5FF0DC0F8FF0CC0F7FF0BC0F6FF34
:1024A0000AC0F4FF09C0F3FF08C0DAFF07C0D9FF74
:1024B00006C0E2FF05C0E1FF04C0EAFF03C0E9FF78
:1024C00002C0FBFF01C0FAFF51921100B8010000E9
:1024D000B8010000B80100005D0100000B0200001F
:1024E000B80100005D0100000B020000B80100000F
:1024F000930200009302000093020000BA02000061
:102500000B020000B80100005D0100000B0200009A
:10251000B8010000020002000200020002000200F6
:10252000A500C400F5004A01F500C400000E176EB6
:10253000000E186E000E196E000E1A6E0FA008D055
:1025400013501726145018221550192216501A220B
:10255000D8901336143615361636D89012321132FA
:1025600010320F320F50101011101210D8A4E6D7ED
:1025700017C00FF018C010F019C011F01AC012F0F7
:102580001200116ED58CD59AD596D550F80B050949
:10259000D56E000ED76E450ED66E11C00FF0010E2F
:1025A0000F160F3A0F46F2500F18DF0B0F18F26E8E
:1025B000F2AE03D00F6A0F2A01D00F6A1150010B3F
:1025C0000F10106E10321032F25010187F0B1018CE
:1025D000F26EF2941200000E156E000E146E115081
:1025E0001210D8B41CD0010E136E04D0D89011363E
:1025F0001236132A12AEFAD7D89014361536115067
:102600000F5C12501058D8A005D011500F5E125018
:10261000105A1480D89012321132132EEDD714C0F4
:102620000FF015C010F012004BC00FF04CC010F0AE
:102630004DC011F04EC012F06D0E136E4E0E146EA2
:10264000C60E156E410E166E96EC12F00FC04BF0D2
:1026500010C04CF011C04DF012C04EF0390E4B2698
:10266000300E4C22000E4D22000E4E22FF0E4D1455
:102670001B6E7F0E4E141C6E120011501210D8B437
:1026800018D0010E136E04D0D89011361236132ACA
:1026900012AEFAD711500F5C12501058D8A004D0C7
:1026A00011500F5E1250105AD89012321132132E60
:1026B000F1D70FC00FF010C010F01200000E2C6EFA
:1026C0002AAE06D0296C2A1ED8B02A2A010E2C6EFA
:1026D00029C00FF02AC010F0116A8E0E126E2CC0A5
:1026E00013F03FEC10F00FC029F010C02AF011C019
:1026F0002BF01200000E0001DF6F000EDE6F07D01E
:10270000030EE82EFED700D00001DE4BDF2B0001C8
:10271000DC510001DE5D0001DD510001DF59D8B060
:102720001200EED7000E136E000E126E0AD0100EBD
:10273000116E410EE82EFED7112EFCD700F0124A82
:10274000132A0F50125C10501358D8B01200EFD754
:102750008A92000EE6EC0FF08A828A94040EE6EC70
:102760000FF08A848A96080EE6EC0FF08A868A9823
:102770000C0EE6EC0FF08A8812000F6E000E106E41
:102780000F0E106401D012001050010DC00EF32482
:10279000D96E000EF420DA6E0FC0DFFF102AF0D7DA
:1027A00023502502F3CF27F0F4CF28F02350260240
:1027B000F350282624502502F350282627C023F062
:1027C00028C024F0120017C00FF018C010F0116AD2
:1027D0008E0E126E000E136E3FEC10F00FC017F04D
:1027E00010C018F011C019F012001A6E1A500F6EB6
:1027F000106A116A8E0E126E000E136E3FEC10F00E
:102800000FC017F010C018F011C019F0120028EC1A
:102810000FF011EC08F0A8EC13F0FBD70FC04BF051
:1028200010C04CF04D6A4E6A12000F0EC16E000EC1
:10283000C1EC12F0120001000000FF00FF00FF00D9
:020000040020DA
:08000000FFFFFFFFFFFFFFFF00
:020000040030CA
:0E00000000051F1FFF8385FF0FC00FE00F409C
:00000001FF
