:020000040000FA
:101000000BEF08F0FF00FF005182FACF01F0FBCF99
:1010100002F029ED11F04AEF0FF00024004E0020FD
:1010200003003ED2000E436E800E446E3F0E456EAE
:10103000BBEC0DF080AA02D0010E01D0000E000121
:10104000E219D8B41200000E0001BD6F000EBC6F93
:10105000010E0001BE6F1200000EC3EC12F0B8C00A
:101060000FF0B9C010F01B0EF66E100EF76E0900EF
:10107000F5CF11F00A00F5CF12F05BEC12F00FC0C3
:10108000B8F010C0B9F0000E0001C06F000E0001F2
:10109000BB6F000EBA6F8982B8C045F0B9C046F088
:1010A00060EC11F00001B84BB92B80A881B007D0DB
:1010B000030E0001BE6F000EC3EC12F0120080B8E8
:1010C000120081A01200020E0001BE6F000EC3ECE0
:1010D00012F01200000E436E800E446E3F0E456EFD
:1010E000BBEC0DF080B808D00001C005D8A41200F8
:1010F000050E0001BE6F12000001C0510001D8A40E
:101100001200040E0001BE6F1200DAC043F0DBC013
:1011100044F0DCC045F0BBEC0DF00001E007D8A0C6
:10112000E1070001C005D8A412D080B804D0050E94
:101130000001BE6F12000001E15104E1060E000142
:10114000E05DD8B01200060E0001BE6F120080B83C
:101150000CD00001E15104E1060E0001E05DD8B0C1
:101160001200060E0001BE6F1200040E0001BE6FD9
:101170001200010E0001C06F81A004D0020E000118
:10118000BE6F1200030E0001BE6F12000001BF51BE
:10119000010DA80EF324D96E000EF420DA6E010EB4
:1011A000DF6E000E0001D86F000E0001D86F0F0E29
:1011B0000001D86501D017D00001D851010DA80E4B
:1011C000F324D96E000EF420DA6EDF50D8A408D0D4
:1011D00081A002D0020E01D0030E0001BE6F03D029
:1011E0000001D82BE4D7100E0001D819D8A41200A2
:1011F000080E0001BE6F12000EEC12F0D8901B36E4
:101200001C361CBE0AD01C5003E11B04D8A005D01C
:10121000000E506E010E4F6E02D04F6850680EECFB
:1012200012F01BC01DF01CC01EF0070E206ED00E69
:101230001F6EF1EC10F0640E1D240001E06F000E33
:101240001E200001E16F0EEC12F0010E1B141D6E4A
:101250001E6A7CEC12F01DC0DAF01EC0DBF01FC06D
:10126000DCF0030E0001BE6F1200000E0001C06F23
:101270002C0E0001C16F010EC26F000EC36F000E75
:10128000C46F000E0001C66F640EC56F48EC0BF012
:10129000000E0001D96F100E0001D96501D0AAD04F
:1012A000BCC01DF0BDC01EF07CEC12F01DC03CF0B7
:1012B0001EC03DF01FC03EF0000E246E000E256ED5
:1012C000400E266EDDC021F0DEC022F0DFC023F02C
:1012D000D6EC0CF021C033F022C034F023C035F03E
:1012E000DDC024F0DEC025F0DFC026F0FF0E0001D7
:1012F000D9251D6E1E6AFF0E1E227CEC12F01DC049
:1013000021F01EC022F01FC023F05CEC0CF021C0C5
:1013100030F022C031F023C032F072EC0AF030C05D
:101320003FF031C040F032C041F0E8EC0FF0D8A0FF
:101330005ED0000E246E000E256E400E266EDDC0BF
:1013400021F0DEC022F0DFC023F0D6EC0CF021C08B
:1013500033F022C034F023C035F0DDC024F0DEC00D
:1013600025F0DFC026F00001D951FAEC12F017C0C9
:1013700021F018C022F019C023F05CEC0CF021C061
:1013800030F022C031F023C032F072EC0AF030C0ED
:10139000D5F031C0D6F032C0D7F0000E336E800EDB
:1013A000346E3F0E356ED5C030F0D6C031F0D7C0A8
:1013B00032F072EC0AF030C03CF031C03DF032C087
:1013C0003EF0BCC01DF0BDC01EF07CEC12F01DC094
:1013D0003FF01EC040F01FC041F0E8EC0FF0D8A075
:1013E00006D00001D9510F0B0001BF6F03D00001DF
:1013F000D92B51D70001BF51010DA80EF324D96E8E
:10140000000EF420DA6EDF50D8A404D0070E0001DD
:10141000BE6F1200090E0001BE6F1200000EC3EC79
:1014200012F02C0E0001C16F010EC26F000EC36FCF
:10143000000EC46F000E0001C66F640EC56F48EC4D
:101440000BF0000E0001B96F000EB86F010E000125
:10145000BE6F1200000E0001B96F000EB86FBAC067
:1014600045F0BBC046F077EC10F00001BA4BBB2B47
:1014700089921D0EF66E100EF76E0900F5500001F0
:10148000BA192FE10900F5500001BB19D8A41200C8
:10149000010E0001BE6F1200000E0001BE6F1200AF
:1014A0000001BE51000AD8B4BDD5010AD8B4D4D5C4
:1014B000030AD8B40FD6010AD8B427D6070AD8B47D
:1014C00058D6010AD8B4D1D6030AD8B495D6010AA1
:1014D000D8B45CD60F0AD8B4BDD7010AD8B49ED709
:1014E000DBD7120032C036F0376A386A313436360C
:1014F00001E3378036503B6E35C036F0376A386AC4
:101500003434363601E3378036503A6E3B50D8B427
:101510000BD03A503B5CD8B00ED03B5000083A2478
:10152000366E180E366407D033C030F034C031F058
:1015300035C032F012003A50D8B40BD03B503A5C70
:10154000D8B00ED03A5000083B24366E180E3664E0
:1015500007D030C030F031C031F032C032F012006C
:10156000060E396E32BE398E35BE398C318EFF0E85
:101570003016FF0E3116000E3216348EFF0E331663
:10158000FF0E3416000E35163A503B5CD8B01BD017
:10159000D8903336343635363A063B503A18D8B4FC
:1015A0000DD0390639C036F0070E3616D8B406D03D
:1015B000EFD7D8903232313230323B2A3A503B1892
:1015C000D8B41FD0F6D73B503A5CD8B01AD0D890D8
:1015D0003036313632363B063B503A18D8B40DD04F
:1015E000390639C036F0070E3616D8B406D0EFD714
:1015F000D8903532343233323A2A3A503B18D8A494
:10160000F7D739AE0CD0FF0E301AFF0E311AFF0E8D
:10161000321A010E3026000E3122000E322239AC71
:101620000CD0FF0E331AFF0E341AFF0E351A010EBE
:101630003326000E3422000E3522000E396E305053
:101640003326315034223250352235AE0ED0FF0EC3
:10165000331AFF0E341AFF0E351A010E3326000E10
:101660003422000E3522010E396E33C00FF034C023
:1016700010F035C011F03BC012F039C013F0F3EC9C
:101680000EF00FC030F010C031F011C032F0120077
:101690000001C1510001C2110001C3110001C411B8
:1016A000D8A407D0C5C00FF0C6C010F098EC12F057
:1016B0001200C1C017F0C2C018F0C3C019F0C4C0F6
:1016C0001AF0B5EC10F017C024F018C025F019C0BE
:1016D00026F0240E216EF40E226E480E236ED6ECF8
:1016E0000CF021C030F022C031F023C032F0E2EC27
:1016F0000BF030C0CFF031C0D0F0C5C00FF0C6C085
:1017000010F0116A126AE80E136E030E146E000ECA
:10171000156E000E166E90EC11F00FC01BF010C08D
:101720001CF011C01DF012C01EF0CFC043F0D0C09D
:1017300044F0D8904336443643C01FF044C020F0F4
:10174000216A226A2CEC0EF01BC0C7F01CC0C8F046
:101750001DC0C9F01EC0CAF0000E0001CB6F000E04
:10176000CC6F000ECD6F000ECE6F15D08986CFC026
:101770003FF0D0C040F0E8EC12F08996CFC03FF0C7
:10178000D0C040F0E8EC12F0010E0001CB27000EB3
:10179000CC23CD23CE230001C7510001CB5D000136
:1017A000C8510001CC590001C9510001CD590001B7
:1017B000CE51800A436E0001CA51800A4358D8B006
:1017C0001200D4D732C034F0356A366A3134343638
:1017D00001E3358034503E6E3E50D8A409D0000E4F
:1017E000306E000E316E000E326E000E336E12003F
:1017F000170E346E30C035F031C036F032C037F0DD
:101800003428386E04D0D890373236323532382EFC
:10181000FAD73550396E318EFF0E3016FF0E311665
:10182000000E321630503A6E31503B6E32503C6EE4
:101830003D6A8E0E3E5E3EAE16D03E50800A8F0F41
:10184000D8B009D0000E306E000E316E000E326E30
:10185000000E336E1200D8903D323C323B323A32A9
:101860003E3EF9D715D0170E3E640FD0000E306EF5
:10187000000E316E000E326E000E336E1200D890E4
:101880003A363B363C363D363E063E50D8A4F7D776
:101890003950D8B408D03D1E3C1E3B1E3A6C000E99
:1018A0003B223C223D223AC030F03BC031F03CC0EC
:1018B00032F03DC033F0120023C027F0286A296AB5
:1018C0002234273601E3288027502A6E2A50D8A4D4
:1018D00007D0000E216E000E226E000E236E120045
:1018E00026C027F0286A296A2534273601E3288094
:1018F00027502F6E2F50D8A407D0000E216E000E57
:10190000226E000E236E12002F507B0F2A2623C05A
:101910002FF026502F1A800E2F16228E258EFF0EA6
:101920002416FF0E2516000E2616000E2B6E000E36
:101930002C6E000E2D6E070E2E6E21A006D02450A8
:101940002B2625502C2226502D22D89023322232AD
:101950002132D8902436253626362E2EEED7090E83
:101960002E6E21A006D024502B2625502C22265046
:101970002D22D890233222322132D8902D322C328F
:101980002B322E2EEED72BC00FF02CC010F02DC016
:1019900011F02AC012F02FC013F0F3EC0EF00FC0BC
:1019A00021F010C022F011C023F0120023C027F054
:1019B000286A296A2234273601E3288027502E6EB0
:1019C0002E50D8A407D0000E216E000E226E000EFD
:1019D000236E120026C027F0286A296A253427368C
:1019E00001E3288027502F6E2F50D8A407D0000E77
:1019F000216E000E226E000E236E1200000E2B6E62
:101A0000000E2C6E000E2D6E2F50890F2E5E23C0FF
:101A10002FF026502F1A800E2F16228EFF0E211621
:101A2000FF0E2216000E2316258EFF0E2416FF0E23
:101A30002516000E2616180E2A6ED8902B362C3638
:101A40002D362450215C2550225826502358D8A0EA
:101A500007D02450215E2550225A2650235A2B802D
:101A6000D8902136223623362A2EE7D72BC00FF006
:101A70002CC010F02DC011F02EC012F02FC013F0AA
:101A8000F3EC0EF00FC021F010C022F011C023F0D3
:101A9000120032001400320014003200140028003A
:101AA0000500140005003C000A0028000500140091
:101AB00005003C00500032001400320014003200D7
:101AC000140028000500140005003C000A0028004E
:101AD0000500140005003C0050004D0A4D0A0000AE
:101AE0004D0A00002D084D0A0000400C00000000C7
:101AF000000020060000000000002D08000000008B
:101B0000200600000000270500000000E00600009D
:101B1000B80700004907E006000020064D0A400C07
:101B2000C00D0000EA0A400C00004D0A00002D081C
:101B30002D09B807000000002D0800000000200655
:101B400000000000270500000000E0060000B807C4
:101B500000004907E006000020064D0A400CC00DB9
:101B60000000EA0A400C00004D0A00002D082D0973
:101B7000B8070000000050BE07D0505003E14F04EA
:101B8000D8A002D08B9E01D08B8E8B8C43C024F0CA
:101B900044C025F045C026F0000E216E7A0E226E5C
:101BA000430E236ED6EC0CF021C030F022C031F091
:101BB00023C032F0E2EC0BF030C03FF031C040F017
:101BC000E8EC12F08B9C43C024F044C025F045C0E3
:101BD00026F0000E216E7A0E226E430E236ED6EC96
:101BE0000CF021C030F022C031F023C032F0E2EC22
:101BF0000BF030C03FF031C040F0E8EC12F04F5035
:101C00000001BC2750500ED01F0EF66E100EF76E5E
:101C10000900F5CF46F00900F5CF47F04650000126
:101C2000BC2747500001BD230001BDBFEDD7BCC09C
:101C30000FF0BDC010F01F0EF66E100EF76E09000B
:101C4000F5CF11F00A00F5CF12F05BEC12F00FC0E7
:101C5000BCF010C0BDF01200000E246E22AE0AD0FF
:101C6000221E211E201E1F6C000E20222122222255
:101C7000010E246E1EAE0AD01E1E1D1E1C1E1B6CE5
:101C8000000E1C221D221E22010E241A000E256E9B
:101C9000000E266E000E276E000E286E1F502010BC
:101CA00021102210D8B42AD0010E236E06D0D8906D
:101CB0001F36203621362236232A22AEF8D7D89076
:101CC00025362636273628361F501B5C20501C58D8
:101CD00021501D5822501E58D8A009D01F501B5EFD
:101CE00020501C5A21501D5A22501E5A2580D8902F
:101CF0002232213220321F32232EE1D72450D8B491
:101D000008D0281E271E261E256C000E26222722FC
:101D1000282225C01BF026C01CF027C01DF028C0BB
:101D20001EF01200949C949E9380939293949396A9
:101D30009398939A939C939E929092929296928863
:101D4000928A8B9C8B9E8A928A948A968A988A9A87
:101D50008A9C8A9E899089828996000E0001BE6FB6
:101D6000000E4E6E000E0001B96F000EB86F000E2F
:101D70000001BB6F000EBA6F000E0001DA6F800E1B
:101D80000001DB6F3F0E0001DC6F010E0001E16F0F
:101D9000F40EE06F000E506E010E4F6E1F0EF66EC9
:101DA000100EF76E0900F5CF1AF00900F5CF1BF001
:101DB000040E1C6ED8901B321A321C2EFBD71AC090
:101DC00017F01BC018F0D6EC12F017C0DDF018C0E9
:101DD000DEF019C0DFF013EC13F0000E80BA010E34
:101DE0000001E26F12001250D8B405D00F5010104D
:101DF0001110D8A40CD0000E0F6E000E106E000E45
:101E0000116E1200122AD890113210320F32000EC9
:101E10000F14146E000E1014156EFE0E1114166EB3
:101E2000145015101610D8B40CD0ECD7122A010E8D
:101E30000F26000E1022000E1122D89011321032FF
:101E40000F32000E0F14146E000E1014156EFF0EDC
:101E50001114166E145015101610D8B406D0E6D70B
:101E60001206D8900F361036113610BE03D0020E6F
:101E70001260F6D712A0109ED89012321250111292
:101E80001350D8A4118E0FC00FF010C010F011C065
:101E900011F0120000EEA8F0190EEE6AE806FDE15E
:101EA0004E6A4D6A4C6A340EF66E1F0EF76E000EC7
:101EB000F86E02EE00F010EE9CF00900F5CFEEFF98
:101EC000E550E150FAE1920EF66E1A0EF76E000E32
:101ED000F86E01EE00F010EEE4F00900F5CFEEFF31
:101EE000E550E150FAE16E0EF66E240EF76E000E2C
:101EF000F86E00EE60F010EE48F00900F5CFEEFF4E
:101F0000E550E150FAE1320EF66E260EF76E000E45
:101F1000F86E00EE48F010EE04F00900F5CFEEFF89
:101F2000E550E150FAE151905192000EF86E000137
:101F30000CEF13F00C000C000C000C000C000C005B
:101F40000C000C000C000C000C000C000C000C0031
:101F50000C000C000C000C000C000C000C000C0021
:101F60000C000C000C000C000C000C000C000C0011
:101F70000C000C000900090009000C000C000C000A
:101F80000C000C000C000C000C000C000C000C00F1
:101F90000C000C000C000C000C000C000C000C00E1
:101FA0000C000C000C000C000C000C000C000C00D1
:101FB0000C000900090009000C000C000C000C00CA
:101FC0000C000C000C000C000C000C000C000C00B1
:101FD0003EAE16D03CC042F03DC043F03EC044F09F
:101FE000421E431E441E422A000E43224422000E7B
:101FF00042243C6E000E43203D6E800E44203E6E17
:1020000041AE16D03FC042F040C043F041C044F062
:10201000421E431E441E422A000E43224422000E4A
:1020200042243F6E000E4320406E800E4420416EDD
:10203000000E3C1A000E3D1A800E3E1A000E3F1A8A
:10204000000E401A800E411A3F503C5C40503D58F3
:1020500041503E58D8B002D0D8901200D88012001B
:10206000466E4650010DA80EF324D96E000EF420E2
:10207000DA6EDE04D8B48A8A4650436E446A010E92
:102080004326000E4422A80E4324D96E000E44209D
:10209000DA6EDE04D8B48A8C4650436E446A020E6F
:1020A0004326000E4422A80E4324D96E000E44207D
:1020B000DA6EDE04D8B48A8E4650436E446A030E4C
:1020C0004326000E4422A80E4324D96E000E44205D
:1020D000DA6EDE04D8B48980000E406E640E3F6E66
:1020E000E8EC12F08A9A8A9C8A9E89901200D89015
:1020F0004534D96E4634DA6E480ED926010EDA22FE
:10210000DECFD1F0DDCFD2F0D1C0C1F0D2C0C2F06D
:102110000001C36BC46B030E106EE80E0F6ED890F7
:102120004534D96E4634DA6E000ED926020EDA2214
:10213000DECF11F0DDCF12F0E5EC11F00FC0C5F0ED
:1021400010C0C6F048EC0BF0000E0001C16F000E8D
:10215000C26F000EC36F000EC46F000E0001C66F89
:10216000140EC56F48EC0BF01200000E206E8E0EA0
:102170001F6E1AAE11D01A1E191E181E176C000EF3
:10218000182219221A22010E206E06D0D8901A3277
:102190001932183217321F2A000E17141B6E000E48
:1021A00018141C6E000E19141D6EFF0E1A141E6EEC
:1021B0001B501C101D101E10D8A4E8D717C00FF01C
:1021C00018C010F019C011F01FC012F020C013F099
:1021D000F3EC0EF00FC017F010C018F011C019F09A
:1021E0001200000E226E1EAE06D01D6C1E1ED8B050
:1021F0001E2A010E226E20AE04D01F6C201ED8B005
:10220000202A1F502010D8B418D0010E216E04D0FF
:10221000D8901F362036212A20AEFAD71F501D5CD9
:1022200020501E58D8A004D01F501D5E20501E5AAA
:10223000D89020321F32212EF1D72250D8B404D0AA
:102240001D6C1E1ED8B01E2A1DC01DF01EC01EF023
:1022500012000600E9CF03F0EACF04F0E1CF05F069
:10226000E2CF06F0D9CF07F0DACF08F0F3CF09F0CC
:10227000F4CF0AF0F6CF0BF0F7CF0CF0F8CF0DF05B
:10228000F5CF0EF00EC0F5FF0DC0F8FF0CC0F7FF44
:102290000BC0F6FF0AC0F4FF09C0F3FF08C0DAFF65
:1022A00007C0D9FF06C0E2FF05C0E1FF04C0EAFF96
:1022B00003C0E9FF02C0FBFF01C0FAFF5192110009
:1022C000D8904534D96E4634DA6E600ED926000EA9
:1022D000DA22DECFD1F0DDCFD2F0D1C0C1F0D2C052
:1022E000C2F00001C36BC46BD8904534D96E46343C
:1022F000DA6E000ED926010EDA22DECFD3F0DDCF62
:10230000D4F00001D890D337D4370001D890D33718
:10231000D437D3C0C5F0D4C0C6F048EC0BF01200DF
:10232000000E176E000E186E000E196E000E1A6E5B
:102330000FA008D013501726145018221550192238
:1023400016501A22D8901336143615361636D890F1
:102350001232113210320F320F50101011101210B1
:10236000D8A4E6D717C00FF018C010F019C011F0AC
:102370001AC012F01200116ED58CD59AD596D55090
:10238000F80B0509D56E000ED76E450ED66E11C03E
:102390000FF0010E0F160F3A0F46F2500F18DF0B19
:1023A0000F18F26EF2AE03D00F6A0F2A01D00F6A37
:1023B0001150010B0F10106E10321032F250101825
:1023C0007F0B1018F26EF2941200000E146E000EC5
:1023D000136E11501210D8B41CD0010E156E04D01B
:1023E000D89011361236152A12AEFAD7D890133675
:1023F000143611500F5C12501058D8A005D011504F
:102400000F5E1250105A1380D89012321132152ECE
:10241000EDD713C00FF014C010F0120048C00FF039
:1024200049C010F04AC011F04BC012F06D0E136E8F
:102430004E0E146EC60E156E410E166E90EC11F017
:102440000FC048F010C049F011C04AF012C04BF064
:10245000390E4826300E4922000E4A22000E4B2229
:10246000FF0E4A141B6E7F0E4B141C6E1200B80137
:102470000000B8010000B80100005D0100000B027F
:102480000000B80100005D0100000B020000B8016F
:102490000000930200009302000093020000BA02C1
:1024A00000000B020000B80100005D0100000B02FB
:1024B0000000B801000011501210D8B418D0010E5D
:1024C000136E04D0D89011361236132A12AEFAD7F2
:1024D00011500F5C12501058D8A004D011500F5E4C
:1024E0001250105AD89012321132132EF1D70FC059
:1024F0000FF010C010F01200000E206E1EAE06D0BD
:102500001D6C1E1ED8B01E2A010E206E1DC00FF0BD
:102510001EC010F0116A8E0E126E20C013F0F3EC84
:102520000EF00FC01DF010C01EF011C01FF0120001
:10253000000E136E000E126E0AD0100E116E410EB8
:10254000E82EFED7112EFCD700F0124A132A0F50A6
:10255000125C10501358D8B01200EFD78A92000EB8
:1025600030EC10F08A828A94040E30EC10F08A84E9
:102570008A96080E30EC10F08A868A980C0E30ECA1
:1025800010F08A8812000F6E000E106E0F0E10648D
:1025900001D012001050010DA80EF324D96E000EC8
:1025A000F420DA6E0FC0DFFF102AF0D717C00FF04B
:1025B00018C010F0116A8E0E126E000E136EF3EC3E
:1025C0000EF00FC017F010C018F011C019F0120073
:1025D000000E426E000E416E06D0030EE82EFED7AE
:1025E00000D0414A422A3F50415C40504258D8B046
:1025F0001200F3D71A6E1A500F6E106A116A8E0EFF
:10260000126E000E136EF3EC0EF00FC017F010C038
:1026100018F011C019F0120092EC0EF011EC08F055
:10262000AEEC12F0FBD70F0EC16E000EBBEC11F03A
:10263000120001000000FF00FF00FF00FF00FF008C
:020000040020DA
:08000000FFFFFFFFFFFFFFFF00
:020000040030CA
:0E00000000051F1FFF8385FF0FC00FE00F409C
:00000001FF
